{
  "address": "0x53906470B0ca1A19B9FFca62cC7934cbA3239CC4",
  "abi": [
    {
      "inputs": [
        {
          "internalType": "address",
          "name": "_vrfCoordinatorAddress",
          "type": "address"
        },
        {
          "internalType": "bytes32",
          "name": "_keyHash",
          "type": "bytes32"
        },
        {
          "internalType": "uint32",
          "name": "_callbackGasLimit",
          "type": "uint32"
        },
        {
          "internalType": "uint64",
          "name": "_subscriptionId",
          "type": "uint64"
        }
      ],
      "stateMutability": "nonpayable",
      "type": "constructor"
    },
    {
      "inputs": [
        {
          "internalType": "address",
          "name": "have",
          "type": "address"
        },
        {
          "internalType": "address",
          "name": "want",
          "type": "address"
        }
      ],
      "name": "OnlyCoordinatorCanFulfill",
      "type": "error"
    },
    {
      "inputs": [],
      "name": "RandomWinner__GameInProgress",
      "type": "error"
    },
    {
      "inputs": [],
      "name": "RandomWinner__InvalidEntryFee",
      "type": "error"
    },
    {
      "inputs": [],
      "name": "RandomWinner__InvalidMaxPlayers",
      "type": "error"
    },
    {
      "inputs": [],
      "name": "RandomWinner__MaxPlayersCompleted",
      "type": "error"
    },
    {
      "inputs": [],
      "name": "RandomWinner__NoGameInProgress",
      "type": "error"
    },
    {
      "inputs": [],
      "name": "RandomWinner__NotContractOwner",
      "type": "error"
    },
    {
      "inputs": [],
      "name": "RandomWinner__WinnerPayoutFailed",
      "type": "error"
    },
    {
      "anonymous": false,
      "inputs": [
        {
          "indexed": true,
          "internalType": "uint256",
          "name": "gameId",
          "type": "uint256"
        },
        {
          "indexed": false,
          "internalType": "address",
          "name": "winner",
          "type": "address"
        },
        {
          "indexed": false,
          "internalType": "uint256",
          "name": "maxPlayers",
          "type": "uint256"
        },
        {
          "indexed": false,
          "internalType": "uint256",
          "name": "requestId",
          "type": "uint256"
        }
      ],
      "name": "GameEnded",
      "type": "event"
    },
    {
      "anonymous": false,
      "inputs": [
        {
          "indexed": true,
          "internalType": "uint256",
          "name": "gameId",
          "type": "uint256"
        },
        {
          "indexed": false,
          "internalType": "uint256",
          "name": "maxPlayers",
          "type": "uint256"
        },
        {
          "indexed": false,
          "internalType": "uint256",
          "name": "entryFee",
          "type": "uint256"
        },
        {
          "indexed": false,
          "internalType": "uint256",
          "name": "time",
          "type": "uint256"
        }
      ],
      "name": "GameStarted",
      "type": "event"
    },
    {
      "anonymous": false,
      "inputs": [
        {
          "indexed": true,
          "internalType": "uint256",
          "name": "gameId",
          "type": "uint256"
        },
        {
          "indexed": false,
          "internalType": "address",
          "name": "player",
          "type": "address"
        },
        {
          "indexed": false,
          "internalType": "uint256",
          "name": "time",
          "type": "uint256"
        }
      ],
      "name": "PlayerJoined",
      "type": "event"
    },
    {
      "anonymous": false,
      "inputs": [
        {
          "indexed": true,
          "internalType": "uint256",
          "name": "gameId",
          "type": "uint256"
        },
        {
          "indexed": false,
          "internalType": "uint256",
          "name": "requestId",
          "type": "uint256"
        },
        {
          "indexed": false,
          "internalType": "uint256",
          "name": "time",
          "type": "uint256"
        }
      ],
      "name": "RandomWordRequested",
      "type": "event"
    },
    {
      "inputs": [],
      "name": "enterGame",
      "outputs": [],
      "stateMutability": "payable",
      "type": "function"
    },
    {
      "inputs": [],
      "name": "getEntryFee",
      "outputs": [
        {
          "internalType": "uint256",
          "name": "",
          "type": "uint256"
        }
      ],
      "stateMutability": "view",
      "type": "function"
    },
    {
      "inputs": [],
      "name": "getGameId",
      "outputs": [
        {
          "internalType": "uint256",
          "name": "",
          "type": "uint256"
        }
      ],
      "stateMutability": "view",
      "type": "function"
    },
    {
      "inputs": [],
      "name": "getGameStatus",
      "outputs": [
        {
          "internalType": "bool",
          "name": "",
          "type": "bool"
        }
      ],
      "stateMutability": "view",
      "type": "function"
    },
    {
      "inputs": [],
      "name": "getOwner",
      "outputs": [
        {
          "internalType": "address",
          "name": "",
          "type": "address"
        }
      ],
      "stateMutability": "view",
      "type": "function"
    },
    {
      "inputs": [
        {
          "internalType": "uint256",
          "name": "requestId",
          "type": "uint256"
        },
        {
          "internalType": "uint256[]",
          "name": "randomWords",
          "type": "uint256[]"
        }
      ],
      "name": "rawFulfillRandomWords",
      "outputs": [],
      "stateMutability": "nonpayable",
      "type": "function"
    },
    {
      "inputs": [],
      "name": "resetGame",
      "outputs": [],
      "stateMutability": "nonpayable",
      "type": "function"
    },
    {
      "inputs": [
        {
          "internalType": "uint256",
          "name": "_entryFee",
          "type": "uint256"
        },
        {
          "internalType": "uint256",
          "name": "_maxPlayers",
          "type": "uint256"
        }
      ],
      "name": "startGame",
      "outputs": [],
      "stateMutability": "nonpayable",
      "type": "function"
    }
  ],
  "transactionHash": "0x6f94e753a73bd000c05d568c45d2ad436d2970cc84091d1d9ddfef61dbc21a7d",
  "args": [
    "0x7a1bac17ccc5b313516c5e16fb24f7659aa5ebed",
    "0x4b09e658ed251bcafeebbc69400383d49f344ace09b9576fe248bb02c003fe9f",
    "100000",
    "5486"
  ],
  "numDeployments": 3,
  "solcInputHash": "86ebfb9ad00c92aba907c5675da1e309",
  "bytecode": "0x6101206040523480156200001257600080fd5b506040516200142738038062001427833981810160405281019062000038919062000250565b838073ffffffffffffffffffffffffffffffffffffffff1660808173ffffffffffffffffffffffffffffffffffffffff168152505050836000806101000a81548173ffffffffffffffffffffffffffffffffffffffff021916908373ffffffffffffffffffffffffffffffffffffffff1602179055508067ffffffffffffffff1660e08167ffffffffffffffff16815250508260a081815250508163ffffffff1660c08163ffffffff16815250503373ffffffffffffffffffffffffffffffffffffffff166101008173ffffffffffffffffffffffffffffffffffffffff168152505050505050620002c2565b600080fd5b600073ffffffffffffffffffffffffffffffffffffffff82169050919050565b600062000157826200012a565b9050919050565b62000169816200014a565b81146200017557600080fd5b50565b60008151905062000189816200015e565b92915050565b6000819050919050565b620001a4816200018f565b8114620001b057600080fd5b50565b600081519050620001c48162000199565b92915050565b600063ffffffff82169050919050565b620001e581620001ca565b8114620001f157600080fd5b50565b6000815190506200020581620001da565b92915050565b600067ffffffffffffffff82169050919050565b6200022a816200020b565b81146200023657600080fd5b50565b6000815190506200024a816200021f565b92915050565b600080600080608085870312156200026d576200026c62000125565b5b60006200027d8782880162000178565b94505060206200029087828801620001b3565b9350506040620002a387828801620001f4565b9250506060620002b68782880162000239565b91505092959194509250565b60805160a05160c05160e051610100516111126200031560003960008181610433015261060b0152600061087d015260006108a00152600061085c0152600081816101a101526101f501526111126000f3fe60806040526004361061007b5760003560e01c8063893d20e81161004e578063893d20e814610107578063bb47221914610132578063c0bd835114610149578063e586a4f0146101745761007b565b80631fe543e314610080578063218bd577146100a9578063382396ee146100b3578063730b8381146100de575b600080fd5b34801561008c57600080fd5b506100a760048036038101906100a29190610bcf565b61019f565b005b6100b161025f565b005b3480156100bf57600080fd5b506100c861041a565b6040516100d59190610c46565b60405180910390f35b3480156100ea57600080fd5b5061010560048036038101906101009190610c61565b610431565b005b34801561011357600080fd5b5061011c610607565b6040516101299190610ce2565b60405180910390f35b34801561013e57600080fd5b5061014761062f565b005b34801561015557600080fd5b5061015e61066a565b60405161016b9190610d0c565b60405180910390f35b34801561018057600080fd5b50610189610674565b6040516101969190610d0c565b60405180910390f35b7f000000000000000000000000000000000000000000000000000000000000000073ffffffffffffffffffffffffffffffffffffffff163373ffffffffffffffffffffffffffffffffffffffff161461025157337f00000000000000000000000000000000000000000000000000000000000000006040517f1cf993f4000000000000000000000000000000000000000000000000000000008152600401610248929190610d27565b60405180910390fd5b61025b828261067e565b5050565b600260009054906101000a900460ff166102a5576040517f8bb65e0700000000000000000000000000000000000000000000000000000000815260040160405180910390fd5b600154600480549050036102e5576040517f23f9149000000000000000000000000000000000000000000000000000000000815260040160405180910390fd5b600354341015610321576040517f85adbc0d00000000000000000000000000000000000000000000000000000000815260040160405180910390fd5b6004339080600181540180825580915050600190039060005260206000200160009091909190916101000a81548173ffffffffffffffffffffffffffffffffffffffff021916908373ffffffffffffffffffffffffffffffffffffffff160217905550600154600480549050036103dc57600061039c61081b565b90506005547fdfd632685fbc0eb8c44b678963d6b0e9655cca07d3051691e26ff4e54f4ebbac82426040516103d2929190610d50565b60405180910390a2505b6005547f03dfbe1fcb4e2d61f3b4a0c93d8f814c92250618b3387f396cc9fc9fafe2c2033342604051610410929190610d79565b60405180910390a2565b6000600260009054906101000a900460ff16905090565b7f000000000000000000000000000000000000000000000000000000000000000073ffffffffffffffffffffffffffffffffffffffff163373ffffffffffffffffffffffffffffffffffffffff16146104b6576040517f0890a83400000000000000000000000000000000000000000000000000000000815260040160405180910390fd5b600260009054906101000a900460ff16156104fd576040517f4bb1084c00000000000000000000000000000000000000000000000000000000815260040160405180910390fd5b60008211610537576040517f85adbc0d00000000000000000000000000000000000000000000000000000000815260040160405180910390fd5b6002811015610572576040517f9bdfa34100000000000000000000000000000000000000000000000000000000815260040160405180910390fd5b6004600061058091906109ee565b6001600260006101000a81548160ff0219169083151502179055508060018190555081600381905550600560008154809291906105bc90610dd1565b91905055506005547fa20ded433b888a649d4d8f7862a100fe47f47441b8b01e11ec294b10bc5ea5ee600154600354426040516105fb93929190610e19565b60405180910390a25050565b60007f0000000000000000000000000000000000000000000000000000000000000000905090565b6004600061063d91906109ee565b6000600260006101000a81548160ff02191690831515021790555060006003819055506000600181905550565b6000600554905090565b6000600354905090565b60006001548260008151811061069757610696610e50565b5b60200260200101516106a99190610eae565b90506000600482815481106106c1576106c0610e50565b5b9060005260206000200160009054906101000a900473ffffffffffffffffffffffffffffffffffffffff1690506000600260006101000a81548160ff0219169083151502179055506000606447605a61071a9190610edf565b6107249190610f21565b905060008273ffffffffffffffffffffffffffffffffffffffff168260405161074c90610f83565b60006040518083038185875af1925050503d8060008114610789576040519150601f19603f3d011682016040523d82523d6000602084013e61078e565b606091505b50509050806107c9576040517f52642dce00000000000000000000000000000000000000000000000000000000815260040160405180910390fd5b6107d38385610929565b6005547f64e67454795640f66cef8019a707b9381952f2f1024a355d5470bafc82af1800846001548960405161080b93929190610f98565b60405180910390a2505050505050565b60008060009054906101000a900473ffffffffffffffffffffffffffffffffffffffff1673ffffffffffffffffffffffffffffffffffffffff16635d3b1d307f00000000000000000000000000000000000000000000000000000000000000007f000000000000000000000000000000000000000000000000000000000000000060037f000000000000000000000000000000000000000000000000000000000000000060016040518663ffffffff1660e01b81526004016108e1959493929190611047565b6020604051808303816000875af1158015610900573d6000803e3d6000fd5b505050506040513d601f19601f8201168201806040525081019061092491906110af565b905090565b6109c1828260405160240161093f929190610d79565b6040516020818303038152906040527f8309e8a8000000000000000000000000000000000000000000000000000000007bffffffffffffffffffffffffffffffffffffffffffffffffffffffff19166020820180517bffffffffffffffffffffffffffffffffffffffffffffffffffffffff83818316178352505050506109c5565b5050565b60008151905060006a636f6e736f6c652e6c6f679050602083016000808483855afa5050505050565b5080546000825590600052602060002090810190610a0c9190610a0f565b50565b5b80821115610a28576000816000905550600101610a10565b5090565b6000604051905090565b600080fd5b600080fd5b6000819050919050565b610a5381610a40565b8114610a5e57600080fd5b50565b600081359050610a7081610a4a565b92915050565b600080fd5b6000601f19601f8301169050919050565b7f4e487b7100000000000000000000000000000000000000000000000000000000600052604160045260246000fd5b610ac482610a7b565b810181811067ffffffffffffffff82111715610ae357610ae2610a8c565b5b80604052505050565b6000610af6610a2c565b9050610b028282610abb565b919050565b600067ffffffffffffffff821115610b2257610b21610a8c565b5b602082029050602081019050919050565b600080fd5b6000610b4b610b4684610b07565b610aec565b90508083825260208201905060208402830185811115610b6e57610b6d610b33565b5b835b81811015610b975780610b838882610a61565b845260208401935050602081019050610b70565b5050509392505050565b600082601f830112610bb657610bb5610a76565b5b8135610bc6848260208601610b38565b91505092915050565b60008060408385031215610be657610be5610a36565b5b6000610bf485828601610a61565b925050602083013567ffffffffffffffff811115610c1557610c14610a3b565b5b610c2185828601610ba1565b9150509250929050565b60008115159050919050565b610c4081610c2b565b82525050565b6000602082019050610c5b6000830184610c37565b92915050565b60008060408385031215610c7857610c77610a36565b5b6000610c8685828601610a61565b9250506020610c9785828601610a61565b9150509250929050565b600073ffffffffffffffffffffffffffffffffffffffff82169050919050565b6000610ccc82610ca1565b9050919050565b610cdc81610cc1565b82525050565b6000602082019050610cf76000830184610cd3565b92915050565b610d0681610a40565b82525050565b6000602082019050610d216000830184610cfd565b92915050565b6000604082019050610d3c6000830185610cd3565b610d496020830184610cd3565b9392505050565b6000604082019050610d656000830185610cfd565b610d726020830184610cfd565b9392505050565b6000604082019050610d8e6000830185610cd3565b610d9b6020830184610cfd565b9392505050565b7f4e487b7100000000000000000000000000000000000000000000000000000000600052601160045260246000fd5b6000610ddc82610a40565b91507fffffffffffffffffffffffffffffffffffffffffffffffffffffffffffffffff8203610e0e57610e0d610da2565b5b600182019050919050565b6000606082019050610e2e6000830186610cfd565b610e3b6020830185610cfd565b610e486040830184610cfd565b949350505050565b7f4e487b7100000000000000000000000000000000000000000000000000000000600052603260045260246000fd5b7f4e487b7100000000000000000000000000000000000000000000000000000000600052601260045260246000fd5b6000610eb982610a40565b9150610ec483610a40565b925082610ed457610ed3610e7f565b5b828206905092915050565b6000610eea82610a40565b9150610ef583610a40565b9250828202610f0381610a40565b91508282048414831517610f1a57610f19610da2565b5b5092915050565b6000610f2c82610a40565b9150610f3783610a40565b925082610f4757610f46610e7f565b5b828204905092915050565b600081905092915050565b50565b6000610f6d600083610f52565b9150610f7882610f5d565b600082019050919050565b6000610f8e82610f60565b9150819050919050565b6000606082019050610fad6000830186610cd3565b610fba6020830185610cfd565b610fc76040830184610cfd565b949350505050565b6000819050919050565b610fe281610fcf565b82525050565b600067ffffffffffffffff82169050919050565b61100581610fe8565b82525050565b600061ffff82169050919050565b6110228161100b565b82525050565b600063ffffffff82169050919050565b61104181611028565b82525050565b600060a08201905061105c6000830188610fd9565b6110696020830187610ffc565b6110766040830186611019565b6110836060830185611038565b6110906080830184611038565b9695505050505050565b6000815190506110a981610a4a565b92915050565b6000602082840312156110c5576110c4610a36565b5b60006110d38482850161109a565b9150509291505056fea26469706673582212203b452f310bef344f532f034114cf65f94c9d46b4504cbe855d821dd20f5bd83a64736f6c63430008110033",
  "devdoc": {
    "kind": "dev",
    "methods": {},
    "version": 1
  },
  "userdoc": {
    "kind": "user",
    "methods": {},
    "version": 1
  },
  "storageLayout": {
    "storage": [
      {
        "astId": 191,
        "contract": "contracts/RandomWinner.sol:RandomWinner",
        "label": "COORDINATOR",
        "offset": 0,
        "slot": "0",
        "type": "t_contract(VRFCoordinatorV2Interface)153"
      },
      {
        "astId": 193,
        "contract": "contracts/RandomWinner.sol:RandomWinner",
        "label": "max_players",
        "offset": 0,
        "slot": "1",
        "type": "t_uint256"
      },
      {
        "astId": 195,
        "contract": "contracts/RandomWinner.sol:RandomWinner",
        "label": "gameStarted",
        "offset": 0,
        "slot": "2",
        "type": "t_bool"
      },
      {
        "astId": 197,
        "contract": "contracts/RandomWinner.sol:RandomWinner",
        "label": "entryFee",
        "offset": 0,
        "slot": "3",
        "type": "t_uint256"
      },
      {
        "astId": 200,
        "contract": "contracts/RandomWinner.sol:RandomWinner",
        "label": "players",
        "offset": 0,
        "slot": "4",
        "type": "t_array(t_address)dyn_storage"
      },
      {
        "astId": 202,
        "contract": "contracts/RandomWinner.sol:RandomWinner",
        "label": "gameId",
        "offset": 0,
        "slot": "5",
        "type": "t_uint256"
      }
    ],
    "types": {
      "t_address": {
        "encoding": "inplace",
        "label": "address",
        "numberOfBytes": "20"
      },
      "t_array(t_address)dyn_storage": {
        "base": "t_address",
        "encoding": "dynamic_array",
        "label": "address[]",
        "numberOfBytes": "32"
      },
      "t_bool": {
        "encoding": "inplace",
        "label": "bool",
        "numberOfBytes": "1"
      },
      "t_contract(VRFCoordinatorV2Interface)153": {
        "encoding": "inplace",
        "label": "contract VRFCoordinatorV2Interface",
        "numberOfBytes": "20"
      },
      "t_uint256": {
        "encoding": "inplace",
        "label": "uint256",
        "numberOfBytes": "32"
      }
    }
  }
}