{
  "address": "0x5FbDB2315678afecb367f032d93F642f64180aa3",
  "abi": [
    {
      "inputs": [
        {
          "internalType": "string",
          "name": "_baseUri",
          "type": "string"
        }
      ],
      "stateMutability": "nonpayable",
      "type": "constructor"
    },
    {
      "inputs": [],
      "name": "MonsterNFT__NotEnoughETH",
      "type": "error"
    },
    {
      "inputs": [],
      "name": "MonsterNFT__WithdrawalFailed",
      "type": "error"
    },
    {
      "anonymous": false,
      "inputs": [
        {
          "indexed": true,
          "internalType": "address",
          "name": "owner",
          "type": "address"
        },
        {
          "indexed": true,
          "internalType": "address",
          "name": "approved",
          "type": "address"
        },
        {
          "indexed": true,
          "internalType": "uint256",
          "name": "tokenId",
          "type": "uint256"
        }
      ],
      "name": "Approval",
      "type": "event"
    },
    {
      "anonymous": false,
      "inputs": [
        {
          "indexed": true,
          "internalType": "address",
          "name": "owner",
          "type": "address"
        },
        {
          "indexed": true,
          "internalType": "address",
          "name": "operator",
          "type": "address"
        },
        {
          "indexed": false,
          "internalType": "bool",
          "name": "approved",
          "type": "bool"
        }
      ],
      "name": "ApprovalForAll",
      "type": "event"
    },
    {
      "anonymous": false,
      "inputs": [
        {
          "indexed": true,
          "internalType": "address",
          "name": "buyer",
          "type": "address"
        },
        {
          "indexed": false,
          "internalType": "uint256",
          "name": "tokenId",
          "type": "uint256"
        },
        {
          "indexed": false,
          "internalType": "uint256",
          "name": "nftPrice",
          "type": "uint256"
        }
      ],
      "name": "MonsterNFT__NFTMinted",
      "type": "event"
    },
    {
      "anonymous": false,
      "inputs": [
        {
          "indexed": true,
          "internalType": "address",
          "name": "previousOwner",
          "type": "address"
        },
        {
          "indexed": true,
          "internalType": "address",
          "name": "newOwner",
          "type": "address"
        }
      ],
      "name": "OwnershipTransferred",
      "type": "event"
    },
    {
      "anonymous": false,
      "inputs": [
        {
          "indexed": true,
          "internalType": "address",
          "name": "from",
          "type": "address"
        },
        {
          "indexed": true,
          "internalType": "address",
          "name": "to",
          "type": "address"
        },
        {
          "indexed": true,
          "internalType": "uint256",
          "name": "tokenId",
          "type": "uint256"
        }
      ],
      "name": "Transfer",
      "type": "event"
    },
    {
      "inputs": [
        {
          "internalType": "address",
          "name": "to",
          "type": "address"
        },
        {
          "internalType": "uint256",
          "name": "tokenId",
          "type": "uint256"
        }
      ],
      "name": "approve",
      "outputs": [],
      "stateMutability": "nonpayable",
      "type": "function"
    },
    {
      "inputs": [
        {
          "internalType": "address",
          "name": "owner",
          "type": "address"
        }
      ],
      "name": "balanceOf",
      "outputs": [
        {
          "internalType": "uint256",
          "name": "",
          "type": "uint256"
        }
      ],
      "stateMutability": "view",
      "type": "function"
    },
    {
      "inputs": [
        {
          "internalType": "uint256",
          "name": "_nftPrice",
          "type": "uint256"
        }
      ],
      "name": "changeNFTPrice",
      "outputs": [],
      "stateMutability": "nonpayable",
      "type": "function"
    },
    {
      "inputs": [
        {
          "internalType": "uint256",
          "name": "tokenId",
          "type": "uint256"
        }
      ],
      "name": "getApproved",
      "outputs": [
        {
          "internalType": "address",
          "name": "",
          "type": "address"
        }
      ],
      "stateMutability": "view",
      "type": "function"
    },
    {
      "inputs": [],
      "name": "getBaseURI",
      "outputs": [
        {
          "internalType": "string",
          "name": "",
          "type": "string"
        }
      ],
      "stateMutability": "view",
      "type": "function"
    },
    {
      "inputs": [],
      "name": "getNFTPrice",
      "outputs": [
        {
          "internalType": "uint256",
          "name": "",
          "type": "uint256"
        }
      ],
      "stateMutability": "view",
      "type": "function"
    },
    {
      "inputs": [
        {
          "internalType": "address",
          "name": "owner",
          "type": "address"
        },
        {
          "internalType": "address",
          "name": "operator",
          "type": "address"
        }
      ],
      "name": "isApprovedForAll",
      "outputs": [
        {
          "internalType": "bool",
          "name": "",
          "type": "bool"
        }
      ],
      "stateMutability": "view",
      "type": "function"
    },
    {
      "inputs": [],
      "name": "mint",
      "outputs": [],
      "stateMutability": "payable",
      "type": "function"
    },
    {
      "inputs": [],
      "name": "name",
      "outputs": [
        {
          "internalType": "string",
          "name": "",
          "type": "string"
        }
      ],
      "stateMutability": "view",
      "type": "function"
    },
    {
      "inputs": [],
      "name": "owner",
      "outputs": [
        {
          "internalType": "address",
          "name": "",
          "type": "address"
        }
      ],
      "stateMutability": "view",
      "type": "function"
    },
    {
      "inputs": [
        {
          "internalType": "uint256",
          "name": "tokenId",
          "type": "uint256"
        }
      ],
      "name": "ownerOf",
      "outputs": [
        {
          "internalType": "address",
          "name": "",
          "type": "address"
        }
      ],
      "stateMutability": "view",
      "type": "function"
    },
    {
      "inputs": [],
      "name": "renounceOwnership",
      "outputs": [],
      "stateMutability": "nonpayable",
      "type": "function"
    },
    {
      "inputs": [
        {
          "internalType": "address",
          "name": "from",
          "type": "address"
        },
        {
          "internalType": "address",
          "name": "to",
          "type": "address"
        },
        {
          "internalType": "uint256",
          "name": "tokenId",
          "type": "uint256"
        }
      ],
      "name": "safeTransferFrom",
      "outputs": [],
      "stateMutability": "nonpayable",
      "type": "function"
    },
    {
      "inputs": [
        {
          "internalType": "address",
          "name": "from",
          "type": "address"
        },
        {
          "internalType": "address",
          "name": "to",
          "type": "address"
        },
        {
          "internalType": "uint256",
          "name": "tokenId",
          "type": "uint256"
        },
        {
          "internalType": "bytes",
          "name": "data",
          "type": "bytes"
        }
      ],
      "name": "safeTransferFrom",
      "outputs": [],
      "stateMutability": "nonpayable",
      "type": "function"
    },
    {
      "inputs": [
        {
          "internalType": "address",
          "name": "operator",
          "type": "address"
        },
        {
          "internalType": "bool",
          "name": "approved",
          "type": "bool"
        }
      ],
      "name": "setApprovalForAll",
      "outputs": [],
      "stateMutability": "nonpayable",
      "type": "function"
    },
    {
      "inputs": [
        {
          "internalType": "string",
          "name": "_baseUri",
          "type": "string"
        }
      ],
      "name": "setBaseURI",
      "outputs": [],
      "stateMutability": "nonpayable",
      "type": "function"
    },
    {
      "inputs": [
        {
          "internalType": "bytes4",
          "name": "interfaceId",
          "type": "bytes4"
        }
      ],
      "name": "supportsInterface",
      "outputs": [
        {
          "internalType": "bool",
          "name": "",
          "type": "bool"
        }
      ],
      "stateMutability": "view",
      "type": "function"
    },
    {
      "inputs": [],
      "name": "symbol",
      "outputs": [
        {
          "internalType": "string",
          "name": "",
          "type": "string"
        }
      ],
      "stateMutability": "view",
      "type": "function"
    },
    {
      "inputs": [
        {
          "internalType": "uint256",
          "name": "index",
          "type": "uint256"
        }
      ],
      "name": "tokenByIndex",
      "outputs": [
        {
          "internalType": "uint256",
          "name": "",
          "type": "uint256"
        }
      ],
      "stateMutability": "view",
      "type": "function"
    },
    {
      "inputs": [
        {
          "internalType": "address",
          "name": "owner",
          "type": "address"
        },
        {
          "internalType": "uint256",
          "name": "index",
          "type": "uint256"
        }
      ],
      "name": "tokenOfOwnerByIndex",
      "outputs": [
        {
          "internalType": "uint256",
          "name": "",
          "type": "uint256"
        }
      ],
      "stateMutability": "view",
      "type": "function"
    },
    {
      "inputs": [
        {
          "internalType": "uint256",
          "name": "tokenId",
          "type": "uint256"
        }
      ],
      "name": "tokenURI",
      "outputs": [
        {
          "internalType": "string",
          "name": "",
          "type": "string"
        }
      ],
      "stateMutability": "view",
      "type": "function"
    },
    {
      "inputs": [],
      "name": "totalSupply",
      "outputs": [
        {
          "internalType": "uint256",
          "name": "",
          "type": "uint256"
        }
      ],
      "stateMutability": "view",
      "type": "function"
    },
    {
      "inputs": [
        {
          "internalType": "address",
          "name": "from",
          "type": "address"
        },
        {
          "internalType": "address",
          "name": "to",
          "type": "address"
        },
        {
          "internalType": "uint256",
          "name": "tokenId",
          "type": "uint256"
        }
      ],
      "name": "transferFrom",
      "outputs": [],
      "stateMutability": "nonpayable",
      "type": "function"
    },
    {
      "inputs": [
        {
          "internalType": "address",
          "name": "newOwner",
          "type": "address"
        }
      ],
      "name": "transferOwnership",
      "outputs": [],
      "stateMutability": "nonpayable",
      "type": "function"
    },
    {
      "inputs": [],
      "name": "withdraw",
      "outputs": [],
      "stateMutability": "nonpayable",
      "type": "function"
    }
  ],
  "transactionHash": "0xa0591d9eba77dbb0de09215302f06cf457a799d2459949bb715122dc237a5238",
  "args": [
    "ipfs://QmXztwDKYaBkyAqZj8LYby6aUfyAzSR4UkSnxpU4aqHnUU/"
  ],
  "numDeployments": 1,
  "solcInputHash": "7cb6226ff4683cbf9c37870234479d52",
  "bytecode": "0x6080604052662386f26fc10000600b553480156200001c57600080fd5b506040516200428f3803806200428f83398181016040528101906200004291906200036e565b6040518060400160405280600b81526020017f4d6f6e73746572204e46540000000000000000000000000000000000000000008152506040518060400160405280600481526020017f4d4e4654000000000000000000000000000000000000000000000000000000008152508160009081620000bf91906200060a565b508060019081620000d191906200060a565b505050620000f4620000e86200010d60201b60201c565b6200011560201b60201c565b80600d90816200010591906200060a565b5050620006f1565b600033905090565b6000600a60009054906101000a900473ffffffffffffffffffffffffffffffffffffffff16905081600a60006101000a81548173ffffffffffffffffffffffffffffffffffffffff021916908373ffffffffffffffffffffffffffffffffffffffff1602179055508173ffffffffffffffffffffffffffffffffffffffff168173ffffffffffffffffffffffffffffffffffffffff167f8be0079c531659141344cd1fd0a4f28419497f9722a3daafe3b4186f6b6457e060405160405180910390a35050565b6000604051905090565b600080fd5b600080fd5b600080fd5b600080fd5b6000601f19601f8301169050919050565b7f4e487b7100000000000000000000000000000000000000000000000000000000600052604160045260246000fd5b6200024482620001f9565b810181811067ffffffffffffffff821117156200026657620002656200020a565b5b80604052505050565b60006200027b620001db565b905062000289828262000239565b919050565b600067ffffffffffffffff821115620002ac57620002ab6200020a565b5b620002b782620001f9565b9050602081019050919050565b60005b83811015620002e4578082015181840152602081019050620002c7565b60008484015250505050565b60006200030762000301846200028e565b6200026f565b905082815260208101848484011115620003265762000325620001f4565b5b62000333848285620002c4565b509392505050565b600082601f830112620003535762000352620001ef565b5b815162000365848260208601620002f0565b91505092915050565b600060208284031215620003875762000386620001e5565b5b600082015167ffffffffffffffff811115620003a857620003a7620001ea565b5b620003b6848285016200033b565b91505092915050565b600081519050919050565b7f4e487b7100000000000000000000000000000000000000000000000000000000600052602260045260246000fd5b600060028204905060018216806200041257607f821691505b602082108103620004285762000427620003ca565b5b50919050565b60008190508160005260206000209050919050565b60006020601f8301049050919050565b600082821b905092915050565b600060088302620004927fffffffffffffffffffffffffffffffffffffffffffffffffffffffffffffffff8262000453565b6200049e868362000453565b95508019841693508086168417925050509392505050565b6000819050919050565b6000819050919050565b6000620004eb620004e5620004df84620004b6565b620004c0565b620004b6565b9050919050565b6000819050919050565b6200050783620004ca565b6200051f6200051682620004f2565b84845462000460565b825550505050565b600090565b6200053662000527565b62000543818484620004fc565b505050565b5b818110156200056b576200055f6000826200052c565b60018101905062000549565b5050565b601f821115620005ba5762000584816200042e565b6200058f8462000443565b810160208510156200059f578190505b620005b7620005ae8562000443565b83018262000548565b50505b505050565b600082821c905092915050565b6000620005df60001984600802620005bf565b1980831691505092915050565b6000620005fa8383620005cc565b9150826002028217905092915050565b6200061582620003bf565b67ffffffffffffffff8111156200063157620006306200020a565b5b6200063d8254620003f9565b6200064a8282856200056f565b600060209050601f8311600181146200068257600084156200066d578287015190505b620006798582620005ec565b865550620006e9565b601f19841662000692866200042e565b60005b82811015620006bc5784890151825560018201915060208501945060208101905062000695565b86831015620006dc5784890151620006d8601f891682620005cc565b8355505b6001600288020188555050505b505050505050565b613b8e80620007016000396000f3fe6080604052600436106101665760003560e01c80636352211e116100d1578063a22cb4651161008a578063e985e9c511610064578063e985e9c51461051b578063edc4400a14610558578063f2fde38b14610581578063fb107a4f146105aa57610166565b8063a22cb4651461048c578063b88d4fde146104b5578063c87b56dd146104de57610166565b80636352211e1461037a57806370a08231146103b7578063714c5398146103f4578063715018a61461041f5780638da5cb5b1461043657806395d89b411461046157610166565b806323b872dd1161012357806323b872dd1461026e5780632f745c59146102975780633ccfd60b146102d457806342842e0e146102eb5780634f6ccce71461031457806355f804b31461035157610166565b806301ffc9a71461016b57806306fdde03146101a8578063081812fc146101d3578063095ea7b3146102105780631249c58b1461023957806318160ddd14610243575b600080fd5b34801561017757600080fd5b50610192600480360381019061018d919061266b565b6105d5565b60405161019f91906126b3565b60405180910390f35b3480156101b457600080fd5b506101bd61064f565b6040516101ca919061275e565b60405180910390f35b3480156101df57600080fd5b506101fa60048036038101906101f591906127b6565b6106e1565b6040516102079190612824565b60405180910390f35b34801561021c57600080fd5b506102376004803603810190610232919061286b565b610727565b005b61024161083e565b005b34801561024f57600080fd5b506102586108ee565b60405161026591906128ba565b60405180910390f35b34801561027a57600080fd5b50610295600480360381019061029091906128d5565b6108fb565b005b3480156102a357600080fd5b506102be60048036038101906102b9919061286b565b61095b565b6040516102cb91906128ba565b60405180910390f35b3480156102e057600080fd5b506102e9610a00565b005b3480156102f757600080fd5b50610312600480360381019061030d91906128d5565b610aae565b005b34801561032057600080fd5b5061033b600480360381019061033691906127b6565b610ace565b60405161034891906128ba565b60405180910390f35b34801561035d57600080fd5b5061037860048036038101906103739190612a5d565b610b3f565b005b34801561038657600080fd5b506103a1600480360381019061039c91906127b6565b610b5a565b6040516103ae9190612824565b60405180910390f35b3480156103c357600080fd5b506103de60048036038101906103d99190612aa6565b610be0565b6040516103eb91906128ba565b60405180910390f35b34801561040057600080fd5b50610409610c97565b604051610416919061275e565b60405180910390f35b34801561042b57600080fd5b50610434610d29565b005b34801561044257600080fd5b5061044b610d3d565b6040516104589190612824565b60405180910390f35b34801561046d57600080fd5b50610476610d67565b604051610483919061275e565b60405180910390f35b34801561049857600080fd5b506104b360048036038101906104ae9190612aff565b610df9565b005b3480156104c157600080fd5b506104dc60048036038101906104d79190612be0565b610e0f565b005b3480156104ea57600080fd5b50610505600480360381019061050091906127b6565b610e71565b604051610512919061275e565b60405180910390f35b34801561052757600080fd5b50610542600480360381019061053d9190612c63565b610ed9565b60405161054f91906126b3565b60405180910390f35b34801561056457600080fd5b5061057f600480360381019061057a91906127b6565b610f6d565b005b34801561058d57600080fd5b506105a860048036038101906105a39190612aa6565b610f7f565b005b3480156105b657600080fd5b506105bf611002565b6040516105cc91906128ba565b60405180910390f35b60007f780e9d63000000000000000000000000000000000000000000000000000000007bffffffffffffffffffffffffffffffffffffffffffffffffffffffff1916827bffffffffffffffffffffffffffffffffffffffffffffffffffffffff1916148061064857506106478261100c565b5b9050919050565b60606000805461065e90612cd2565b80601f016020809104026020016040519081016040528092919081815260200182805461068a90612cd2565b80156106d75780601f106106ac576101008083540402835291602001916106d7565b820191906000526020600020905b8154815290600101906020018083116106ba57829003601f168201915b5050505050905090565b60006106ec826110ee565b6004600083815260200190815260200160002060009054906101000a900473ffffffffffffffffffffffffffffffffffffffff169050919050565b600061073282610b5a565b90508073ffffffffffffffffffffffffffffffffffffffff168373ffffffffffffffffffffffffffffffffffffffff16036107a2576040517f08c379a000000000000000000000000000000000000000000000000000000000815260040161079990612d75565b60405180910390fd5b8073ffffffffffffffffffffffffffffffffffffffff166107c1611139565b73ffffffffffffffffffffffffffffffffffffffff1614806107f057506107ef816107ea611139565b610ed9565b5b61082f576040517f08c379a000000000000000000000000000000000000000000000000000000000815260040161082690612e07565b60405180910390fd5b6108398383611141565b505050565b600b5434101561087a576040517f48f4301100000000000000000000000000000000000000000000000000000000815260040160405180910390fd5b61089833600c6000815461088d90612e56565b9190508190556111fa565b3373ffffffffffffffffffffffffffffffffffffffff167f0f5721ff311378e5a4a22847856e0a8898ff99baa1c91b54f10149cde9e85b3b600c54600b546040516108e4929190612e9e565b60405180910390a2565b6000600880549050905090565b61090c610906611139565b82611218565b61094b576040517f08c379a000000000000000000000000000000000000000000000000000000000815260040161094290612f39565b60405180910390fd5b6109568383836112ad565b505050565b600061096683610be0565b82106109a7576040517f08c379a000000000000000000000000000000000000000000000000000000000815260040161099e90612fcb565b60405180910390fd5b600660008473ffffffffffffffffffffffffffffffffffffffff1673ffffffffffffffffffffffffffffffffffffffff168152602001908152602001600020600083815260200190815260200160002054905092915050565b610a086115a6565b60003373ffffffffffffffffffffffffffffffffffffffff1647604051610a2e9061301c565b60006040518083038185875af1925050503d8060008114610a6b576040519150601f19603f3d011682016040523d82523d6000602084013e610a70565b606091505b5050905080610aab576040517ffbb209f700000000000000000000000000000000000000000000000000000000815260040160405180910390fd5b50565b610ac983838360405180602001604052806000815250610e0f565b505050565b6000610ad86108ee565b8210610b19576040517f08c379a0000000000000000000000000000000000000000000000000000000008152600401610b10906130a3565b60405180910390fd5b60088281548110610b2d57610b2c6130c3565b5b90600052602060002001549050919050565b610b476115a6565b80600d9081610b56919061329e565b5050565b600080610b6683611624565b9050600073ffffffffffffffffffffffffffffffffffffffff168173ffffffffffffffffffffffffffffffffffffffff1603610bd7576040517f08c379a0000000000000000000000000000000000000000000000000000000008152600401610bce906133bc565b60405180910390fd5b80915050919050565b60008073ffffffffffffffffffffffffffffffffffffffff168273ffffffffffffffffffffffffffffffffffffffff1603610c50576040517f08c379a0000000000000000000000000000000000000000000000000000000008152600401610c479061344e565b60405180910390fd5b600360008373ffffffffffffffffffffffffffffffffffffffff1673ffffffffffffffffffffffffffffffffffffffff168152602001908152602001600020549050919050565b6060600d8054610ca690612cd2565b80601f0160208091040260200160405190810160405280929190818152602001828054610cd290612cd2565b8015610d1f5780601f10610cf457610100808354040283529160200191610d1f565b820191906000526020600020905b815481529060010190602001808311610d0257829003601f168201915b5050505050905090565b610d316115a6565b610d3b6000611661565b565b6000600a60009054906101000a900473ffffffffffffffffffffffffffffffffffffffff16905090565b606060018054610d7690612cd2565b80601f0160208091040260200160405190810160405280929190818152602001828054610da290612cd2565b8015610def5780601f10610dc457610100808354040283529160200191610def565b820191906000526020600020905b815481529060010190602001808311610dd257829003601f168201915b5050505050905090565b610e0b610e04611139565b8383611727565b5050565b610e20610e1a611139565b83611218565b610e5f576040517f08c379a0000000000000000000000000000000000000000000000000000000008152600401610e5690612f39565b60405180910390fd5b610e6b84848484611893565b50505050565b6060610e7c826110ee565b6000610e866118ef565b90506000815111610ea65760405180602001604052806000815250610ed1565b80610eb084611981565b604051602001610ec19291906134f6565b6040516020818303038152906040525b915050919050565b6000600560008473ffffffffffffffffffffffffffffffffffffffff1673ffffffffffffffffffffffffffffffffffffffff16815260200190815260200160002060008373ffffffffffffffffffffffffffffffffffffffff1673ffffffffffffffffffffffffffffffffffffffff16815260200190815260200160002060009054906101000a900460ff16905092915050565b610f756115a6565b80600b8190555050565b610f876115a6565b600073ffffffffffffffffffffffffffffffffffffffff168173ffffffffffffffffffffffffffffffffffffffff1603610ff6576040517f08c379a0000000000000000000000000000000000000000000000000000000008152600401610fed90613597565b60405180910390fd5b610fff81611661565b50565b6000600b54905090565b60007f80ac58cd000000000000000000000000000000000000000000000000000000007bffffffffffffffffffffffffffffffffffffffffffffffffffffffff1916827bffffffffffffffffffffffffffffffffffffffffffffffffffffffff191614806110d757507f5b5e139f000000000000000000000000000000000000000000000000000000007bffffffffffffffffffffffffffffffffffffffffffffffffffffffff1916827bffffffffffffffffffffffffffffffffffffffffffffffffffffffff1916145b806110e757506110e682611a4f565b5b9050919050565b6110f781611ab9565b611136576040517f08c379a000000000000000000000000000000000000000000000000000000000815260040161112d906133bc565b60405180910390fd5b50565b600033905090565b816004600083815260200190815260200160002060006101000a81548173ffffffffffffffffffffffffffffffffffffffff021916908373ffffffffffffffffffffffffffffffffffffffff160217905550808273ffffffffffffffffffffffffffffffffffffffff166111b483610b5a565b73ffffffffffffffffffffffffffffffffffffffff167f8c5be1e5ebec7d5bd14f71427d1e84f3dd0314c0f7b2291e5b200ac8c7c3b92560405160405180910390a45050565b611214828260405180602001604052806000815250611afa565b5050565b60008061122483610b5a565b90508073ffffffffffffffffffffffffffffffffffffffff168473ffffffffffffffffffffffffffffffffffffffff16148061126657506112658185610ed9565b5b806112a457508373ffffffffffffffffffffffffffffffffffffffff1661128c846106e1565b73ffffffffffffffffffffffffffffffffffffffff16145b91505092915050565b8273ffffffffffffffffffffffffffffffffffffffff166112cd82610b5a565b73ffffffffffffffffffffffffffffffffffffffff1614611323576040517f08c379a000000000000000000000000000000000000000000000000000000000815260040161131a90613629565b60405180910390fd5b600073ffffffffffffffffffffffffffffffffffffffff168273ffffffffffffffffffffffffffffffffffffffff1603611392576040517f08c379a0000000000000000000000000000000000000000000000000000000008152600401611389906136bb565b60405180910390fd5b61139f8383836001611b55565b8273ffffffffffffffffffffffffffffffffffffffff166113bf82610b5a565b73ffffffffffffffffffffffffffffffffffffffff1614611415576040517f08c379a000000000000000000000000000000000000000000000000000000000815260040161140c90613629565b60405180910390fd5b6004600082815260200190815260200160002060006101000a81549073ffffffffffffffffffffffffffffffffffffffff02191690556001600360008573ffffffffffffffffffffffffffffffffffffffff1673ffffffffffffffffffffffffffffffffffffffff168152602001908152602001600020600082825403925050819055506001600360008473ffffffffffffffffffffffffffffffffffffffff1673ffffffffffffffffffffffffffffffffffffffff16815260200190815260200160002060008282540192505081905550816002600083815260200190815260200160002060006101000a81548173ffffffffffffffffffffffffffffffffffffffff021916908373ffffffffffffffffffffffffffffffffffffffff160217905550808273ffffffffffffffffffffffffffffffffffffffff168473ffffffffffffffffffffffffffffffffffffffff167fddf252ad1be2c89b69c2b068fc378daa952ba7f163c4a11628f55a4df523b3ef60405160405180910390a46115a18383836001611cb3565b505050565b6115ae611139565b73ffffffffffffffffffffffffffffffffffffffff166115cc610d3d565b73ffffffffffffffffffffffffffffffffffffffff1614611622576040517f08c379a000000000000000000000000000000000000000000000000000000000815260040161161990613727565b60405180910390fd5b565b60006002600083815260200190815260200160002060009054906101000a900473ffffffffffffffffffffffffffffffffffffffff169050919050565b6000600a60009054906101000a900473ffffffffffffffffffffffffffffffffffffffff16905081600a60006101000a81548173ffffffffffffffffffffffffffffffffffffffff021916908373ffffffffffffffffffffffffffffffffffffffff1602179055508173ffffffffffffffffffffffffffffffffffffffff168173ffffffffffffffffffffffffffffffffffffffff167f8be0079c531659141344cd1fd0a4f28419497f9722a3daafe3b4186f6b6457e060405160405180910390a35050565b8173ffffffffffffffffffffffffffffffffffffffff168373ffffffffffffffffffffffffffffffffffffffff1603611795576040517f08c379a000000000000000000000000000000000000000000000000000000000815260040161178c90613793565b60405180910390fd5b80600560008573ffffffffffffffffffffffffffffffffffffffff1673ffffffffffffffffffffffffffffffffffffffff16815260200190815260200160002060008473ffffffffffffffffffffffffffffffffffffffff1673ffffffffffffffffffffffffffffffffffffffff16815260200190815260200160002060006101000a81548160ff0219169083151502179055508173ffffffffffffffffffffffffffffffffffffffff168373ffffffffffffffffffffffffffffffffffffffff167f17307eab39ab6107e8899845ad3d59bd9653f200f220920489ca2b5937696c318360405161188691906126b3565b60405180910390a3505050565b61189e8484846112ad565b6118aa84848484611cb9565b6118e9576040517f08c379a00000000000000000000000000000000000000000000000000000000081526004016118e090613825565b60405180910390fd5b50505050565b6060600d80546118fe90612cd2565b80601f016020809104026020016040519081016040528092919081815260200182805461192a90612cd2565b80156119775780601f1061194c57610100808354040283529160200191611977565b820191906000526020600020905b81548152906001019060200180831161195a57829003601f168201915b5050505050905090565b60606000600161199084611e40565b01905060008167ffffffffffffffff8111156119af576119ae612932565b5b6040519080825280601f01601f1916602001820160405280156119e15781602001600182028036833780820191505090505b509050600082602001820190505b600115611a44578080600190039150507f3031323334353637383961626364656600000000000000000000000000000000600a86061a8153600a8581611a3857611a37613845565b5b049450600085036119ef575b819350505050919050565b60007f01ffc9a7000000000000000000000000000000000000000000000000000000007bffffffffffffffffffffffffffffffffffffffffffffffffffffffff1916827bffffffffffffffffffffffffffffffffffffffffffffffffffffffff1916149050919050565b60008073ffffffffffffffffffffffffffffffffffffffff16611adb83611624565b73ffffffffffffffffffffffffffffffffffffffff1614159050919050565b611b048383611f93565b611b116000848484611cb9565b611b50576040517f08c379a0000000000000000000000000000000000000000000000000000000008152600401611b4790613825565b60405180910390fd5b505050565b611b61848484846121b0565b6001811115611ba5576040517f08c379a0000000000000000000000000000000000000000000000000000000008152600401611b9c906138e6565b60405180910390fd5b6000829050600073ffffffffffffffffffffffffffffffffffffffff168573ffffffffffffffffffffffffffffffffffffffff1603611bec57611be7816122d6565b611c2b565b8373ffffffffffffffffffffffffffffffffffffffff168573ffffffffffffffffffffffffffffffffffffffff1614611c2a57611c29858261231f565b5b5b600073ffffffffffffffffffffffffffffffffffffffff168473ffffffffffffffffffffffffffffffffffffffff1603611c6d57611c688161248c565b611cac565b8473ffffffffffffffffffffffffffffffffffffffff168473ffffffffffffffffffffffffffffffffffffffff1614611cab57611caa848261255d565b5b5b5050505050565b50505050565b6000611cda8473ffffffffffffffffffffffffffffffffffffffff166125dc565b15611e33578373ffffffffffffffffffffffffffffffffffffffff1663150b7a02611d03611139565b8786866040518563ffffffff1660e01b8152600401611d25949392919061395b565b6020604051808303816000875af1925050508015611d6157506040513d601f19601f82011682018060405250810190611d5e91906139bc565b60015b611de3573d8060008114611d91576040519150601f19603f3d011682016040523d82523d6000602084013e611d96565b606091505b506000815103611ddb576040517f08c379a0000000000000000000000000000000000000000000000000000000008152600401611dd290613825565b60405180910390fd5b805181602001fd5b63150b7a0260e01b7bffffffffffffffffffffffffffffffffffffffffffffffffffffffff1916817bffffffffffffffffffffffffffffffffffffffffffffffffffffffff191614915050611e38565b600190505b949350505050565b600080600090507a184f03e93ff9f4daa797ed6e38ed64bf6a1f0100000000000000008310611e9e577a184f03e93ff9f4daa797ed6e38ed64bf6a1f0100000000000000008381611e9457611e93613845565b5b0492506040810190505b6d04ee2d6d415b85acef81000000008310611edb576d04ee2d6d415b85acef81000000008381611ed157611ed0613845565b5b0492506020810190505b662386f26fc100008310611f0a57662386f26fc100008381611f0057611eff613845565b5b0492506010810190505b6305f5e1008310611f33576305f5e1008381611f2957611f28613845565b5b0492506008810190505b6127108310611f58576127108381611f4e57611f4d613845565b5b0492506004810190505b60648310611f7b5760648381611f7157611f70613845565b5b0492506002810190505b600a8310611f8a576001810190505b80915050919050565b600073ffffffffffffffffffffffffffffffffffffffff168273ffffffffffffffffffffffffffffffffffffffff1603612002576040517f08c379a0000000000000000000000000000000000000000000000000000000008152600401611ff990613a35565b60405180910390fd5b61200b81611ab9565b1561204b576040517f08c379a000000000000000000000000000000000000000000000000000000000815260040161204290613aa1565b60405180910390fd5b612059600083836001611b55565b61206281611ab9565b156120a2576040517f08c379a000000000000000000000000000000000000000000000000000000000815260040161209990613aa1565b60405180910390fd5b6001600360008473ffffffffffffffffffffffffffffffffffffffff1673ffffffffffffffffffffffffffffffffffffffff16815260200190815260200160002060008282540192505081905550816002600083815260200190815260200160002060006101000a81548173ffffffffffffffffffffffffffffffffffffffff021916908373ffffffffffffffffffffffffffffffffffffffff160217905550808273ffffffffffffffffffffffffffffffffffffffff16600073ffffffffffffffffffffffffffffffffffffffff167fddf252ad1be2c89b69c2b068fc378daa952ba7f163c4a11628f55a4df523b3ef60405160405180910390a46121ac600083836001611cb3565b5050565b60018111156122d057600073ffffffffffffffffffffffffffffffffffffffff168473ffffffffffffffffffffffffffffffffffffffff16146122445780600360008673ffffffffffffffffffffffffffffffffffffffff1673ffffffffffffffffffffffffffffffffffffffff168152602001908152602001600020600082825461223c9190613ac1565b925050819055505b600073ffffffffffffffffffffffffffffffffffffffff168373ffffffffffffffffffffffffffffffffffffffff16146122cf5780600360008573ffffffffffffffffffffffffffffffffffffffff1673ffffffffffffffffffffffffffffffffffffffff16815260200190815260200160002060008282546122c79190613af5565b925050819055505b5b50505050565b6008805490506009600083815260200190815260200160002081905550600881908060018154018082558091505060019003906000526020600020016000909190919091505550565b6000600161232c84610be0565b6123369190613ac1565b905060006007600084815260200190815260200160002054905081811461241b576000600660008673ffffffffffffffffffffffffffffffffffffffff1673ffffffffffffffffffffffffffffffffffffffff168152602001908152602001600020600084815260200190815260200160002054905080600660008773ffffffffffffffffffffffffffffffffffffffff1673ffffffffffffffffffffffffffffffffffffffff168152602001908152602001600020600084815260200190815260200160002081905550816007600083815260200190815260200160002081905550505b6007600084815260200190815260200160002060009055600660008573ffffffffffffffffffffffffffffffffffffffff1673ffffffffffffffffffffffffffffffffffffffff16815260200190815260200160002060008381526020019081526020016000206000905550505050565b600060016008805490506124a09190613ac1565b90506000600960008481526020019081526020016000205490506000600883815481106124d0576124cf6130c3565b5b9060005260206000200154905080600883815481106124f2576124f16130c3565b5b90600052602060002001819055508160096000838152602001908152602001600020819055506009600085815260200190815260200160002060009055600880548061254157612540613b29565b5b6001900381819060005260206000200160009055905550505050565b600061256883610be0565b905081600660008573ffffffffffffffffffffffffffffffffffffffff1673ffffffffffffffffffffffffffffffffffffffff168152602001908152602001600020600083815260200190815260200160002081905550806007600084815260200190815260200160002081905550505050565b6000808273ffffffffffffffffffffffffffffffffffffffff163b119050919050565b6000604051905090565b600080fd5b600080fd5b60007fffffffff0000000000000000000000000000000000000000000000000000000082169050919050565b61264881612613565b811461265357600080fd5b50565b6000813590506126658161263f565b92915050565b60006020828403121561268157612680612609565b5b600061268f84828501612656565b91505092915050565b60008115159050919050565b6126ad81612698565b82525050565b60006020820190506126c860008301846126a4565b92915050565b600081519050919050565b600082825260208201905092915050565b60005b838110156127085780820151818401526020810190506126ed565b60008484015250505050565b6000601f19601f8301169050919050565b6000612730826126ce565b61273a81856126d9565b935061274a8185602086016126ea565b61275381612714565b840191505092915050565b600060208201905081810360008301526127788184612725565b905092915050565b6000819050919050565b61279381612780565b811461279e57600080fd5b50565b6000813590506127b08161278a565b92915050565b6000602082840312156127cc576127cb612609565b5b60006127da848285016127a1565b91505092915050565b600073ffffffffffffffffffffffffffffffffffffffff82169050919050565b600061280e826127e3565b9050919050565b61281e81612803565b82525050565b60006020820190506128396000830184612815565b92915050565b61284881612803565b811461285357600080fd5b50565b6000813590506128658161283f565b92915050565b6000806040838503121561288257612881612609565b5b600061289085828601612856565b92505060206128a1858286016127a1565b9150509250929050565b6128b481612780565b82525050565b60006020820190506128cf60008301846128ab565b92915050565b6000806000606084860312156128ee576128ed612609565b5b60006128fc86828701612856565b935050602061290d86828701612856565b925050604061291e868287016127a1565b9150509250925092565b600080fd5b600080fd5b7f4e487b7100000000000000000000000000000000000000000000000000000000600052604160045260246000fd5b61296a82612714565b810181811067ffffffffffffffff8211171561298957612988612932565b5b80604052505050565b600061299c6125ff565b90506129a88282612961565b919050565b600067ffffffffffffffff8211156129c8576129c7612932565b5b6129d182612714565b9050602081019050919050565b82818337600083830152505050565b6000612a006129fb846129ad565b612992565b905082815260208101848484011115612a1c57612a1b61292d565b5b612a278482856129de565b509392505050565b600082601f830112612a4457612a43612928565b5b8135612a548482602086016129ed565b91505092915050565b600060208284031215612a7357612a72612609565b5b600082013567ffffffffffffffff811115612a9157612a9061260e565b5b612a9d84828501612a2f565b91505092915050565b600060208284031215612abc57612abb612609565b5b6000612aca84828501612856565b91505092915050565b612adc81612698565b8114612ae757600080fd5b50565b600081359050612af981612ad3565b92915050565b60008060408385031215612b1657612b15612609565b5b6000612b2485828601612856565b9250506020612b3585828601612aea565b9150509250929050565b600067ffffffffffffffff821115612b5a57612b59612932565b5b612b6382612714565b9050602081019050919050565b6000612b83612b7e84612b3f565b612992565b905082815260208101848484011115612b9f57612b9e61292d565b5b612baa8482856129de565b509392505050565b600082601f830112612bc757612bc6612928565b5b8135612bd7848260208601612b70565b91505092915050565b60008060008060808587031215612bfa57612bf9612609565b5b6000612c0887828801612856565b9450506020612c1987828801612856565b9350506040612c2a878288016127a1565b925050606085013567ffffffffffffffff811115612c4b57612c4a61260e565b5b612c5787828801612bb2565b91505092959194509250565b60008060408385031215612c7a57612c79612609565b5b6000612c8885828601612856565b9250506020612c9985828601612856565b9150509250929050565b7f4e487b7100000000000000000000000000000000000000000000000000000000600052602260045260246000fd5b60006002820490506001821680612cea57607f821691505b602082108103612cfd57612cfc612ca3565b5b50919050565b7f4552433732313a20617070726f76616c20746f2063757272656e74206f776e6560008201527f7200000000000000000000000000000000000000000000000000000000000000602082015250565b6000612d5f6021836126d9565b9150612d6a82612d03565b604082019050919050565b60006020820190508181036000830152612d8e81612d52565b9050919050565b7f4552433732313a20617070726f76652063616c6c6572206973206e6f7420746f60008201527f6b656e206f776e6572206f7220617070726f76656420666f7220616c6c000000602082015250565b6000612df1603d836126d9565b9150612dfc82612d95565b604082019050919050565b60006020820190508181036000830152612e2081612de4565b9050919050565b7f4e487b7100000000000000000000000000000000000000000000000000000000600052601160045260246000fd5b6000612e6182612780565b91507fffffffffffffffffffffffffffffffffffffffffffffffffffffffffffffffff8203612e9357612e92612e27565b5b600182019050919050565b6000604082019050612eb360008301856128ab565b612ec060208301846128ab565b9392505050565b7f4552433732313a2063616c6c6572206973206e6f7420746f6b656e206f776e6560008201527f72206f7220617070726f76656400000000000000000000000000000000000000602082015250565b6000612f23602d836126d9565b9150612f2e82612ec7565b604082019050919050565b60006020820190508181036000830152612f5281612f16565b9050919050565b7f455243373231456e756d657261626c653a206f776e657220696e646578206f7560008201527f74206f6620626f756e6473000000000000000000000000000000000000000000602082015250565b6000612fb5602b836126d9565b9150612fc082612f59565b604082019050919050565b60006020820190508181036000830152612fe481612fa8565b9050919050565b600081905092915050565b50565b6000613006600083612feb565b915061301182612ff6565b600082019050919050565b600061302782612ff9565b9150819050919050565b7f455243373231456e756d657261626c653a20676c6f62616c20696e646578206f60008201527f7574206f6620626f756e64730000000000000000000000000000000000000000602082015250565b600061308d602c836126d9565b915061309882613031565b604082019050919050565b600060208201905081810360008301526130bc81613080565b9050919050565b7f4e487b7100000000000000000000000000000000000000000000000000000000600052603260045260246000fd5b60008190508160005260206000209050919050565b60006020601f8301049050919050565b600082821b905092915050565b6000600883026131547fffffffffffffffffffffffffffffffffffffffffffffffffffffffffffffffff82613117565b61315e8683613117565b95508019841693508086168417925050509392505050565b6000819050919050565b600061319b61319661319184612780565b613176565b612780565b9050919050565b6000819050919050565b6131b583613180565b6131c96131c1826131a2565b848454613124565b825550505050565b600090565b6131de6131d1565b6131e98184846131ac565b505050565b5b8181101561320d576132026000826131d6565b6001810190506131ef565b5050565b601f82111561325257613223816130f2565b61322c84613107565b8101602085101561323b578190505b61324f61324785613107565b8301826131ee565b50505b505050565b600082821c905092915050565b600061327560001984600802613257565b1980831691505092915050565b600061328e8383613264565b9150826002028217905092915050565b6132a7826126ce565b67ffffffffffffffff8111156132c0576132bf612932565b5b6132ca8254612cd2565b6132d5828285613211565b600060209050601f83116001811461330857600084156132f6578287015190505b6133008582613282565b865550613368565b601f198416613316866130f2565b60005b8281101561333e57848901518255600182019150602085019450602081019050613319565b8683101561335b5784890151613357601f891682613264565b8355505b6001600288020188555050505b505050505050565b7f4552433732313a20696e76616c696420746f6b656e2049440000000000000000600082015250565b60006133a66018836126d9565b91506133b182613370565b602082019050919050565b600060208201905081810360008301526133d581613399565b9050919050565b7f4552433732313a2061646472657373207a65726f206973206e6f74206120766160008201527f6c6964206f776e65720000000000000000000000000000000000000000000000602082015250565b60006134386029836126d9565b9150613443826133dc565b604082019050919050565b600060208201905081810360008301526134678161342b565b9050919050565b600081905092915050565b6000613484826126ce565b61348e818561346e565b935061349e8185602086016126ea565b80840191505092915050565b7f2e6a736f6e000000000000000000000000000000000000000000000000000000600082015250565b60006134e060058361346e565b91506134eb826134aa565b600582019050919050565b60006135028285613479565b915061350e8284613479565b9150613519826134d3565b91508190509392505050565b7f4f776e61626c653a206e6577206f776e657220697320746865207a65726f206160008201527f6464726573730000000000000000000000000000000000000000000000000000602082015250565b60006135816026836126d9565b915061358c82613525565b604082019050919050565b600060208201905081810360008301526135b081613574565b9050919050565b7f4552433732313a207472616e736665722066726f6d20696e636f72726563742060008201527f6f776e6572000000000000000000000000000000000000000000000000000000602082015250565b60006136136025836126d9565b915061361e826135b7565b604082019050919050565b6000602082019050818103600083015261364281613606565b9050919050565b7f4552433732313a207472616e7366657220746f20746865207a65726f2061646460008201527f7265737300000000000000000000000000000000000000000000000000000000602082015250565b60006136a56024836126d9565b91506136b082613649565b604082019050919050565b600060208201905081810360008301526136d481613698565b9050919050565b7f4f776e61626c653a2063616c6c6572206973206e6f7420746865206f776e6572600082015250565b60006137116020836126d9565b915061371c826136db565b602082019050919050565b6000602082019050818103600083015261374081613704565b9050919050565b7f4552433732313a20617070726f766520746f2063616c6c657200000000000000600082015250565b600061377d6019836126d9565b915061378882613747565b602082019050919050565b600060208201905081810360008301526137ac81613770565b9050919050565b7f4552433732313a207472616e7366657220746f206e6f6e20455243373231526560008201527f63656976657220696d706c656d656e7465720000000000000000000000000000602082015250565b600061380f6032836126d9565b915061381a826137b3565b604082019050919050565b6000602082019050818103600083015261383e81613802565b9050919050565b7f4e487b7100000000000000000000000000000000000000000000000000000000600052601260045260246000fd5b7f455243373231456e756d657261626c653a20636f6e736563757469766520747260008201527f616e7366657273206e6f7420737570706f727465640000000000000000000000602082015250565b60006138d06035836126d9565b91506138db82613874565b604082019050919050565b600060208201905081810360008301526138ff816138c3565b9050919050565b600081519050919050565b600082825260208201905092915050565b600061392d82613906565b6139378185613911565b93506139478185602086016126ea565b61395081612714565b840191505092915050565b60006080820190506139706000830187612815565b61397d6020830186612815565b61398a60408301856128ab565b818103606083015261399c8184613922565b905095945050505050565b6000815190506139b68161263f565b92915050565b6000602082840312156139d2576139d1612609565b5b60006139e0848285016139a7565b91505092915050565b7f4552433732313a206d696e7420746f20746865207a65726f2061646472657373600082015250565b6000613a1f6020836126d9565b9150613a2a826139e9565b602082019050919050565b60006020820190508181036000830152613a4e81613a12565b9050919050565b7f4552433732313a20746f6b656e20616c7265616479206d696e74656400000000600082015250565b6000613a8b601c836126d9565b9150613a9682613a55565b602082019050919050565b60006020820190508181036000830152613aba81613a7e565b9050919050565b6000613acc82612780565b9150613ad783612780565b9250828203905081811115613aef57613aee612e27565b5b92915050565b6000613b0082612780565b9150613b0b83612780565b9250828201905080821115613b2357613b22612e27565b5b92915050565b7f4e487b7100000000000000000000000000000000000000000000000000000000600052603160045260246000fdfea264697066735822122001cb940e9dbf51c44cd77c5c7c7b26123f34bd7517715be01832c244411d13e764736f6c63430008110033",
  "devdoc": {
    "kind": "dev",
    "methods": {
      "approve(address,uint256)": {
        "details": "See {IERC721-approve}."
      },
      "balanceOf(address)": {
        "details": "See {IERC721-balanceOf}."
      },
      "getApproved(uint256)": {
        "details": "See {IERC721-getApproved}."
      },
      "isApprovedForAll(address,address)": {
        "details": "See {IERC721-isApprovedForAll}."
      },
      "name()": {
        "details": "See {IERC721Metadata-name}."
      },
      "owner()": {
        "details": "Returns the address of the current owner."
      },
      "ownerOf(uint256)": {
        "details": "See {IERC721-ownerOf}."
      },
      "renounceOwnership()": {
        "details": "Leaves the contract without owner. It will not be possible to call `onlyOwner` functions anymore. Can only be called by the current owner. NOTE: Renouncing ownership will leave the contract without an owner, thereby removing any functionality that is only available to the owner."
      },
      "safeTransferFrom(address,address,uint256)": {
        "details": "See {IERC721-safeTransferFrom}."
      },
      "safeTransferFrom(address,address,uint256,bytes)": {
        "details": "See {IERC721-safeTransferFrom}."
      },
      "setApprovalForAll(address,bool)": {
        "details": "See {IERC721-setApprovalForAll}."
      },
      "supportsInterface(bytes4)": {
        "details": "See {IERC165-supportsInterface}."
      },
      "symbol()": {
        "details": "See {IERC721Metadata-symbol}."
      },
      "tokenByIndex(uint256)": {
        "details": "See {IERC721Enumerable-tokenByIndex}."
      },
      "tokenOfOwnerByIndex(address,uint256)": {
        "details": "See {IERC721Enumerable-tokenOfOwnerByIndex}."
      },
      "tokenURI(uint256)": {
        "details": "See {IERC721Metadata-tokenURI}."
      },
      "totalSupply()": {
        "details": "See {IERC721Enumerable-totalSupply}."
      },
      "transferFrom(address,address,uint256)": {
        "details": "See {IERC721-transferFrom}."
      },
      "transferOwnership(address)": {
        "details": "Transfers ownership of the contract to a new account (`newOwner`). Can only be called by the current owner."
      }
    },
    "version": 1
  },
  "userdoc": {
    "kind": "user",
    "methods": {},
    "version": 1
  },
  "storageLayout": {
    "storage": [
      {
        "astId": 192,
        "contract": "contracts/Monster.sol:MonsterNFT",
        "label": "_name",
        "offset": 0,
        "slot": "0",
        "type": "t_string_storage"
      },
      {
        "astId": 194,
        "contract": "contracts/Monster.sol:MonsterNFT",
        "label": "_symbol",
        "offset": 0,
        "slot": "1",
        "type": "t_string_storage"
      },
      {
        "astId": 198,
        "contract": "contracts/Monster.sol:MonsterNFT",
        "label": "_owners",
        "offset": 0,
        "slot": "2",
        "type": "t_mapping(t_uint256,t_address)"
      },
      {
        "astId": 202,
        "contract": "contracts/Monster.sol:MonsterNFT",
        "label": "_balances",
        "offset": 0,
        "slot": "3",
        "type": "t_mapping(t_address,t_uint256)"
      },
      {
        "astId": 206,
        "contract": "contracts/Monster.sol:MonsterNFT",
        "label": "_tokenApprovals",
        "offset": 0,
        "slot": "4",
        "type": "t_mapping(t_uint256,t_address)"
      },
      {
        "astId": 212,
        "contract": "contracts/Monster.sol:MonsterNFT",
        "label": "_operatorApprovals",
        "offset": 0,
        "slot": "5",
        "type": "t_mapping(t_address,t_mapping(t_address,t_bool))"
      },
      {
        "astId": 1260,
        "contract": "contracts/Monster.sol:MonsterNFT",
        "label": "_ownedTokens",
        "offset": 0,
        "slot": "6",
        "type": "t_mapping(t_address,t_mapping(t_uint256,t_uint256))"
      },
      {
        "astId": 1264,
        "contract": "contracts/Monster.sol:MonsterNFT",
        "label": "_ownedTokensIndex",
        "offset": 0,
        "slot": "7",
        "type": "t_mapping(t_uint256,t_uint256)"
      },
      {
        "astId": 1267,
        "contract": "contracts/Monster.sol:MonsterNFT",
        "label": "_allTokens",
        "offset": 0,
        "slot": "8",
        "type": "t_array(t_uint256)dyn_storage"
      },
      {
        "astId": 1271,
        "contract": "contracts/Monster.sol:MonsterNFT",
        "label": "_allTokensIndex",
        "offset": 0,
        "slot": "9",
        "type": "t_mapping(t_uint256,t_uint256)"
      },
      {
        "astId": 7,
        "contract": "contracts/Monster.sol:MonsterNFT",
        "label": "_owner",
        "offset": 0,
        "slot": "10",
        "type": "t_address"
      },
      {
        "astId": 3103,
        "contract": "contracts/Monster.sol:MonsterNFT",
        "label": "s_nftPrice",
        "offset": 0,
        "slot": "11",
        "type": "t_uint256"
      },
      {
        "astId": 3105,
        "contract": "contracts/Monster.sol:MonsterNFT",
        "label": "s_tokenIds",
        "offset": 0,
        "slot": "12",
        "type": "t_uint256"
      },
      {
        "astId": 3107,
        "contract": "contracts/Monster.sol:MonsterNFT",
        "label": "baseUri",
        "offset": 0,
        "slot": "13",
        "type": "t_string_storage"
      }
    ],
    "types": {
      "t_address": {
        "encoding": "inplace",
        "label": "address",
        "numberOfBytes": "20"
      },
      "t_array(t_uint256)dyn_storage": {
        "base": "t_uint256",
        "encoding": "dynamic_array",
        "label": "uint256[]",
        "numberOfBytes": "32"
      },
      "t_bool": {
        "encoding": "inplace",
        "label": "bool",
        "numberOfBytes": "1"
      },
      "t_mapping(t_address,t_bool)": {
        "encoding": "mapping",
        "key": "t_address",
        "label": "mapping(address => bool)",
        "numberOfBytes": "32",
        "value": "t_bool"
      },
      "t_mapping(t_address,t_mapping(t_address,t_bool))": {
        "encoding": "mapping",
        "key": "t_address",
        "label": "mapping(address => mapping(address => bool))",
        "numberOfBytes": "32",
        "value": "t_mapping(t_address,t_bool)"
      },
      "t_mapping(t_address,t_mapping(t_uint256,t_uint256))": {
        "encoding": "mapping",
        "key": "t_address",
        "label": "mapping(address => mapping(uint256 => uint256))",
        "numberOfBytes": "32",
        "value": "t_mapping(t_uint256,t_uint256)"
      },
      "t_mapping(t_address,t_uint256)": {
        "encoding": "mapping",
        "key": "t_address",
        "label": "mapping(address => uint256)",
        "numberOfBytes": "32",
        "value": "t_uint256"
      },
      "t_mapping(t_uint256,t_address)": {
        "encoding": "mapping",
        "key": "t_uint256",
        "label": "mapping(uint256 => address)",
        "numberOfBytes": "32",
        "value": "t_address"
      },
      "t_mapping(t_uint256,t_uint256)": {
        "encoding": "mapping",
        "key": "t_uint256",
        "label": "mapping(uint256 => uint256)",
        "numberOfBytes": "32",
        "value": "t_uint256"
      },
      "t_string_storage": {
        "encoding": "bytes",
        "label": "string",
        "numberOfBytes": "32"
      },
      "t_uint256": {
        "encoding": "inplace",
        "label": "uint256",
        "numberOfBytes": "32"
      }
    }
  }
}